{
  "_format": "hh-sol-artifact-1",
  "contractName": "ProjectFactory",
  "sourceName": "contracts/ProjectFactory.sol",
  "abi": [
    {
      "stateMutability": "payable",
      "type": "fallback"
    },
    {
      "inputs": [
        {
          "internalType": "uint256",
          "name": "_fundingGoal",
          "type": "uint256"
        }
      ],
      "name": "createProject",
      "outputs": [],
      "stateMutability": "nonpayable",
      "type": "function"
    },
    {
      "inputs": [
        {
          "internalType": "uint256",
          "name": "",
          "type": "uint256"
        }
      ],
      "name": "deployedProjects",
      "outputs": [
        {
          "internalType": "address",
          "name": "",
          "type": "address"
        }
      ],
      "stateMutability": "view",
      "type": "function"
    },
    {
      "stateMutability": "payable",
      "type": "receive"
    }
  ],
  "bytecode": "0x608060405234801561001057600080fd5b50611534806100206000396000f3fe60806040526004361061002d5760003560e01c8063992034d7146100365780639ec6deaf1461005f57610034565b3661003457005b005b34801561004257600080fd5b5061005d600480360381019061005891906101c4565b61009c565b005b34801561006b57600080fd5b50610086600480360381019061008191906101c4565b61013d565b6040516100939190610232565b60405180910390f35b600081336040516100ac9061017c565b6100b792919061025c565b604051809103906000f0801580156100d3573d6000803e3d6000fd5b5090506000819080600181540180825580915050600190039060005260206000200160009091909190916101000a81548173ffffffffffffffffffffffffffffffffffffffff021916908373ffffffffffffffffffffffffffffffffffffffff1602179055505050565b6000818154811061014d57600080fd5b906000526020600020016000915054906101000a900473ffffffffffffffffffffffffffffffffffffffff1681565b6112798061028683390190565b600080fd5b6000819050919050565b6101a18161018e565b81146101ac57600080fd5b50565b6000813590506101be81610198565b92915050565b6000602082840312156101da576101d9610189565b5b60006101e8848285016101af565b91505092915050565b600073ffffffffffffffffffffffffffffffffffffffff82169050919050565b600061021c826101f1565b9050919050565b61022c81610211565b82525050565b60006020820190506102476000830184610223565b92915050565b6102568161018e565b82525050565b6000604082019050610271600083018561024d565b61027e6020830184610223565b939250505056fe6080604052662386f26fc1000060035560006004556000600660006101000a81548160ff0219169083151502179055503480156200003c57600080fd5b50604051620012793803806200127983398181016040528101906200006291906200016e565b80600160006101000a81548173ffffffffffffffffffffffffffffffffffffffff021916908373ffffffffffffffffffffffffffffffffffffffff1602179055508160028190555062278d0042620000bb9190620001e4565b600581905550505062000241565b600080fd5b6000819050919050565b620000e381620000ce565b8114620000ef57600080fd5b50565b6000815190506200010381620000d8565b92915050565b600073ffffffffffffffffffffffffffffffffffffffff82169050919050565b6000620001368262000109565b9050919050565b620001488162000129565b81146200015457600080fd5b50565b60008151905062000168816200013d565b92915050565b60008060408385031215620001885762000187620000c9565b5b60006200019885828601620000f2565b9250506020620001ab8582860162000157565b9150509250929050565b7f4e487b7100000000000000000000000000000000000000000000000000000000600052601160045260246000fd5b6000620001f182620000ce565b9150620001fe83620000ce565b9250827fffffffffffffffffffffffffffffffffffffffffffffffffffffffffffffffff03821115620002365762000235620001b5565b5b828201905092915050565b61102880620002516000396000f3fe6080604052600436106100a05760003560e01c8063590e1ae311610064578063590e1ae3146101905780637a3a0e84146101a75780639a82a09a146101d2578063aaffadf3146101fd578063d7bb99ba14610228578063ea8a1af014610232576100a7565b806302d05d3f146100a95780631f6d4942146100d457806329dcb0cf146101115780632e1a7d4d1461013c57806337c0892314610165576100a7565b366100a757005b005b3480156100b557600080fd5b506100be610249565b6040516100cb9190610968565b60405180910390f35b3480156100e057600080fd5b506100fb60048036038101906100f691906109b4565b61026f565b60405161010891906109fa565b60405180910390f35b34801561011d57600080fd5b50610126610287565b60405161013391906109fa565b60405180910390f35b34801561014857600080fd5b50610163600480360381019061015e9190610a41565b61028d565b005b34801561017157600080fd5b5061017a610457565b60405161018791906109fa565b60405180910390f35b34801561019c57600080fd5b506101a561045d565b005b3480156101b357600080fd5b506101bc610691565b6040516101c991906109fa565b60405180910390f35b3480156101de57600080fd5b506101e7610697565b6040516101f49190610a89565b60405180910390f35b34801561020957600080fd5b506102126106aa565b60405161021f91906109fa565b60405180910390f35b6102306106b0565b005b34801561023e57600080fd5b5061024761080e565b005b600160009054906101000a900473ffffffffffffffffffffffffffffffffffffffff1681565b60006020528060005260406000206000915090505481565b60055481565b600160009054906101000a900473ffffffffffffffffffffffffffffffffffffffff1673ffffffffffffffffffffffffffffffffffffffff163373ffffffffffffffffffffffffffffffffffffffff161461031d576040517f08c379a000000000000000000000000000000000000000000000000000000000815260040161031490610b01565b60405180910390fd5b6002546004541015610364576040517f08c379a000000000000000000000000000000000000000000000000000000000815260040161035b90610b6d565b60405180910390fd5b478111156103a7576040517f08c379a000000000000000000000000000000000000000000000000000000000815260040161039e90610bff565b60405180910390fd5b60003373ffffffffffffffffffffffffffffffffffffffff16826040516103cd90610c50565b60006040518083038185875af1925050503d806000811461040a576040519150601f19603f3d011682016040523d82523d6000602084013e61040f565b606091505b5050905080610453576040517f08c379a000000000000000000000000000000000000000000000000000000000815260040161044a90610cb1565b60405180910390fd5b5050565b60045481565b60025460045410801561047257506005544210155b806104895750600660009054906101000a900460ff165b6104c8576040517f08c379a00000000000000000000000000000000000000000000000000000000081526004016104bf90610d1d565b60405180910390fd5b60008060003373ffffffffffffffffffffffffffffffffffffffff1673ffffffffffffffffffffffffffffffffffffffff1681526020019081526020016000205411610549576040517f08c379a000000000000000000000000000000000000000000000000000000000815260040161054090610daf565b60405180910390fd5b60008060003373ffffffffffffffffffffffffffffffffffffffff1673ffffffffffffffffffffffffffffffffffffffff168152602001908152602001600020549050806000803373ffffffffffffffffffffffffffffffffffffffff1673ffffffffffffffffffffffffffffffffffffffff16815260200190815260200160002060008282546105da9190610dfe565b9250508190555060003373ffffffffffffffffffffffffffffffffffffffff168260405161060790610c50565b60006040518083038185875af1925050503d8060008114610644576040519150601f19603f3d011682016040523d82523d6000602084013e610649565b606091505b505090508061068d576040517f08c379a000000000000000000000000000000000000000000000000000000000815260040161068490610e7e565b60405180910390fd5b5050565b60025481565b600660009054906101000a900460ff1681565b60035481565b600660009054906101000a900460ff161580156106ce575060055442105b80156106dd5750600254600454105b61071c576040517f08c379a000000000000000000000000000000000000000000000000000000000815260040161071390610eea565b60405180910390fd5b600354341015610761576040517f08c379a000000000000000000000000000000000000000000000000000000000815260040161075890610f7c565b60405180910390fd5b6000346000803373ffffffffffffffffffffffffffffffffffffffff1673ffffffffffffffffffffffffffffffffffffffff168152602001908152602001600020546107ad9190610f9c565b9050806000803373ffffffffffffffffffffffffffffffffffffffff1673ffffffffffffffffffffffffffffffffffffffff1681526020019081526020016000208190555034600460008282546108049190610f9c565b9250508190555050565b600160009054906101000a900473ffffffffffffffffffffffffffffffffffffffff1673ffffffffffffffffffffffffffffffffffffffff163373ffffffffffffffffffffffffffffffffffffffff161461089e576040517f08c379a000000000000000000000000000000000000000000000000000000000815260040161089590610b01565b60405180910390fd5b600660009054906101000a900460ff161580156108bc575060055442105b80156108cb5750600254600454105b61090a576040517f08c379a000000000000000000000000000000000000000000000000000000000815260040161090190610eea565b60405180910390fd5b6001600660006101000a81548160ff021916908315150217905550565b600073ffffffffffffffffffffffffffffffffffffffff82169050919050565b600061095282610927565b9050919050565b61096281610947565b82525050565b600060208201905061097d6000830184610959565b92915050565b600080fd5b61099181610947565b811461099c57600080fd5b50565b6000813590506109ae81610988565b92915050565b6000602082840312156109ca576109c9610983565b5b60006109d88482850161099f565b91505092915050565b6000819050919050565b6109f4816109e1565b82525050565b6000602082019050610a0f60008301846109eb565b92915050565b610a1e816109e1565b8114610a2957600080fd5b50565b600081359050610a3b81610a15565b92915050565b600060208284031215610a5757610a56610983565b5b6000610a6584828501610a2c565b91505092915050565b60008115159050919050565b610a8381610a6e565b82525050565b6000602082019050610a9e6000830184610a7a565b92915050565b600082825260208201905092915050565b7f6d7573742062652070726f6a6563742063726561746f72000000000000000000600082015250565b6000610aeb601783610aa4565b9150610af682610ab5565b602082019050919050565b60006020820190508181036000830152610b1a81610ade565b9050919050565b7f70726f6a656374206d7573742062652066756c6c792066756e64656400000000600082015250565b6000610b57601c83610aa4565b9150610b6282610b21565b602082019050919050565b60006020820190508181036000830152610b8681610b4a565b9050919050565b7f616d6f756e742072657175657374656420666f72207769746864726177616c2060008201527f6d75737420657869737420696e20636f6e747261637400000000000000000000602082015250565b6000610be9603683610aa4565b9150610bf482610b8d565b604082019050919050565b60006020820190508181036000830152610c1881610bdc565b9050919050565b600081905092915050565b50565b6000610c3a600083610c1f565b9150610c4582610c2a565b600082019050919050565b6000610c5b82610c2d565b9150819050919050565b7f6661696c656420746f2077697468647261770000000000000000000000000000600082015250565b6000610c9b601283610aa4565b9150610ca682610c65565b602082019050919050565b60006020820190508181036000830152610cca81610c8e565b9050919050565b7f70726f6a656374206d757374206265206f766572000000000000000000000000600082015250565b6000610d07601483610aa4565b9150610d1282610cd1565b602082019050919050565b60006020820190508181036000830152610d3681610cfa565b9050919050565b7f6d7573742068617665206578697374696e6720636f6e747269627574696f6e2060008201527f62616c616e636500000000000000000000000000000000000000000000000000602082015250565b6000610d99602783610aa4565b9150610da482610d3d565b604082019050919050565b60006020820190508181036000830152610dc881610d8c565b9050919050565b7f4e487b7100000000000000000000000000000000000000000000000000000000600052601160045260246000fd5b6000610e09826109e1565b9150610e14836109e1565b925082821015610e2757610e26610dcf565b5b828203905092915050565b7f6661696c656420746f2073656e6420726566756e640000000000000000000000600082015250565b6000610e68601583610aa4565b9150610e7382610e32565b602082019050919050565b60006020820190508181036000830152610e9781610e5b565b9050919050565b7f70726f6a656374206973206e6f74206c69766500000000000000000000000000600082015250565b6000610ed4601383610aa4565b9150610edf82610e9e565b602082019050919050565b60006020820190508181036000830152610f0381610ec7565b9050919050565b7f636f6e747269627574696f6e206d757374206265206174206c6561737420302e60008201527f3031204554480000000000000000000000000000000000000000000000000000602082015250565b6000610f66602683610aa4565b9150610f7182610f0a565b604082019050919050565b60006020820190508181036000830152610f9581610f59565b9050919050565b6000610fa7826109e1565b9150610fb2836109e1565b9250827fffffffffffffffffffffffffffffffffffffffffffffffffffffffffffffffff03821115610fe757610fe6610dcf565b5b82820190509291505056fea264697066735822122004415efc0a8eef563926684faa87a43f22d37d08d06a8c6f1bcb8a1e219bef0364736f6c634300080b0033a2646970667358221220ab27df0d393e316f42351c9b2a001358453f4bedf482e015a9a9d4f789fe59e064736f6c634300080b0033",
  "linkReferences": {},
  "deployedLinkReferences": {}
}