{
  "_format": "hh-sol-artifact-1",
  "contractName": "Project",
  "sourceName": "contracts/Project.sol",
  "abi": [
    {
      "inputs": [
        {
          "internalType": "uint256",
          "name": "_fundingGoal",
          "type": "uint256"
        }
      ],
      "stateMutability": "nonpayable",
      "type": "constructor"
    },
    {
      "stateMutability": "payable",
      "type": "fallback"
    },
    {
      "inputs": [],
      "name": "cancel",
      "outputs": [],
      "stateMutability": "nonpayable",
      "type": "function"
    },
    {
      "inputs": [],
      "name": "cancelled",
      "outputs": [
        {
          "internalType": "bool",
          "name": "",
          "type": "bool"
        }
      ],
      "stateMutability": "view",
      "type": "function"
    },
    {
      "inputs": [
        {
          "internalType": "uint256",
          "name": "_amount",
          "type": "uint256"
        }
      ],
      "name": "contribute",
      "outputs": [],
      "stateMutability": "payable",
      "type": "function"
    },
    {
      "inputs": [
        {
          "internalType": "address",
          "name": "",
          "type": "address"
        }
      ],
      "name": "contributors",
      "outputs": [
        {
          "internalType": "uint256",
          "name": "",
          "type": "uint256"
        }
      ],
      "stateMutability": "view",
      "type": "function"
    },
    {
      "inputs": [],
      "name": "creator",
      "outputs": [
        {
          "internalType": "address",
          "name": "",
          "type": "address"
        }
      ],
      "stateMutability": "view",
      "type": "function"
    },
    {
      "inputs": [],
      "name": "deadline",
      "outputs": [
        {
          "internalType": "uint256",
          "name": "",
          "type": "uint256"
        }
      ],
      "stateMutability": "view",
      "type": "function"
    },
    {
      "inputs": [],
      "name": "fundingGoal",
      "outputs": [
        {
          "internalType": "uint256",
          "name": "",
          "type": "uint256"
        }
      ],
      "stateMutability": "view",
      "type": "function"
    },
    {
      "inputs": [],
      "name": "getRefund",
      "outputs": [],
      "stateMutability": "nonpayable",
      "type": "function"
    },
    {
      "inputs": [],
      "name": "minContribution",
      "outputs": [
        {
          "internalType": "uint256",
          "name": "",
          "type": "uint256"
        }
      ],
      "stateMutability": "view",
      "type": "function"
    },
    {
      "inputs": [],
      "name": "totalContributions",
      "outputs": [
        {
          "internalType": "uint256",
          "name": "",
          "type": "uint256"
        }
      ],
      "stateMutability": "view",
      "type": "function"
    },
    {
      "inputs": [
        {
          "internalType": "uint256",
          "name": "_amount",
          "type": "uint256"
        }
      ],
      "name": "withdraw",
      "outputs": [],
      "stateMutability": "nonpayable",
      "type": "function"
    },
    {
      "stateMutability": "payable",
      "type": "receive"
    }
  ],
  "bytecode": "0x6080604052662386f26fc1000060035560006004556000600660006101000a81548160ff02191690831515021790555034801561003b57600080fd5b5060405162000c9538038062000c95833981810160405281019061005f91906100fd565b33600160006101000a81548173ffffffffffffffffffffffffffffffffffffffff021916908373ffffffffffffffffffffffffffffffffffffffff1602179055508060028190555062278d00426100b69190610159565b600581905550506101af565b600080fd5b6000819050919050565b6100da816100c7565b81146100e557600080fd5b50565b6000815190506100f7816100d1565b92915050565b600060208284031215610113576101126100c2565b5b6000610121848285016100e8565b91505092915050565b7f4e487b7100000000000000000000000000000000000000000000000000000000600052601160045260246000fd5b6000610164826100c7565b915061016f836100c7565b9250827fffffffffffffffffffffffffffffffffffffffffffffffffffffffffffffffff038211156101a4576101a361012a565b5b828201905092915050565b610ad680620001bf6000396000f3fe6080604052600436106100a05760003560e01c80637a3a0e84116100645780637a3a0e84146101905780639a82a09a146101bb578063aaffadf3146101e6578063b2d5ae4414610211578063c1cbbca714610228578063ea8a1af014610244576100a7565b806302d05d3f146100a95780631f6d4942146100d457806329dcb0cf146101115780632e1a7d4d1461013c57806337c0892314610165576100a7565b366100a757005b005b3480156100b557600080fd5b506100be61025b565b6040516100cb919061077c565b60405180910390f35b3480156100e057600080fd5b506100fb60048036038101906100f691906107c8565b610281565b604051610108919061080e565b60405180910390f35b34801561011d57600080fd5b50610126610299565b604051610133919061080e565b60405180910390f35b34801561014857600080fd5b50610163600480360381019061015e9190610855565b61029f565b005b34801561017157600080fd5b5061017a6103c7565b604051610187919061080e565b60405180910390f35b34801561019c57600080fd5b506101a56103cd565b6040516101b2919061080e565b60405180910390f35b3480156101c757600080fd5b506101d06103d3565b6040516101dd919061089d565b60405180910390f35b3480156101f257600080fd5b506101fb6103e6565b604051610208919061080e565b60405180910390f35b34801561021d57600080fd5b506102266103ec565b005b610242600480360381019061023d9190610855565b6105b4565b005b34801561025057600080fd5b5061025961068e565b005b600160009054906101000a900473ffffffffffffffffffffffffffffffffffffffff1681565b60006020528060005260406000206000915090505481565b60055481565b600160009054906101000a900473ffffffffffffffffffffffffffffffffffffffff1673ffffffffffffffffffffffffffffffffffffffff163373ffffffffffffffffffffffffffffffffffffffff16146102f957600080fd5b600254600454101561030a57600080fd5b4781111561031757600080fd5b60003373ffffffffffffffffffffffffffffffffffffffff168260405161033d906108e9565b60006040518083038185875af1925050503d806000811461037a576040519150601f19603f3d011682016040523d82523d6000602084013e61037f565b606091505b50509050806103c3576040517f08c379a00000000000000000000000000000000000000000000000000000000081526004016103ba9061095b565b60405180910390fd5b5050565b60045481565b60025481565b600660009054906101000a900460ff1681565b60035481565b60025460045410801561040157506005544210155b806104185750600660009054906101000a900460ff165b61042157600080fd5b60008060003373ffffffffffffffffffffffffffffffffffffffff1673ffffffffffffffffffffffffffffffffffffffff168152602001908152602001600020541161046c57600080fd5b60008060003373ffffffffffffffffffffffffffffffffffffffff1673ffffffffffffffffffffffffffffffffffffffff168152602001908152602001600020549050806000803373ffffffffffffffffffffffffffffffffffffffff1673ffffffffffffffffffffffffffffffffffffffff16815260200190815260200160002060008282546104fd91906109aa565b9250508190555060003373ffffffffffffffffffffffffffffffffffffffff168260405161052a906108e9565b60006040518083038185875af1925050503d8060008114610567576040519150601f19603f3d011682016040523d82523d6000602084013e61056c565b606091505b50509050806105b0576040517f08c379a00000000000000000000000000000000000000000000000000000000081526004016105a790610a2a565b60405180910390fd5b5050565b600660009054906101000a900460ff161580156105d2575060055442105b80156105e15750600254600454105b6105ea57600080fd5b6003543410156105f957600080fd5b6000816000803373ffffffffffffffffffffffffffffffffffffffff1673ffffffffffffffffffffffffffffffffffffffff168152602001908152602001600020546106459190610a4a565b9050806000803373ffffffffffffffffffffffffffffffffffffffff1673ffffffffffffffffffffffffffffffffffffffff168152602001908152602001600020819055505050565b600160009054906101000a900473ffffffffffffffffffffffffffffffffffffffff1673ffffffffffffffffffffffffffffffffffffffff163373ffffffffffffffffffffffffffffffffffffffff16146106e857600080fd5b600660009054906101000a900460ff16158015610706575060055442105b80156107155750600254600454105b61071e57600080fd5b6001600660006101000a81548160ff021916908315150217905550565b600073ffffffffffffffffffffffffffffffffffffffff82169050919050565b60006107668261073b565b9050919050565b6107768161075b565b82525050565b6000602082019050610791600083018461076d565b92915050565b600080fd5b6107a58161075b565b81146107b057600080fd5b50565b6000813590506107c28161079c565b92915050565b6000602082840312156107de576107dd610797565b5b60006107ec848285016107b3565b91505092915050565b6000819050919050565b610808816107f5565b82525050565b600060208201905061082360008301846107ff565b92915050565b610832816107f5565b811461083d57600080fd5b50565b60008135905061084f81610829565b92915050565b60006020828403121561086b5761086a610797565b5b600061087984828501610840565b91505092915050565b60008115159050919050565b61089781610882565b82525050565b60006020820190506108b2600083018461088e565b92915050565b600081905092915050565b50565b60006108d36000836108b8565b91506108de826108c3565b600082019050919050565b60006108f4826108c6565b9150819050919050565b600082825260208201905092915050565b7f6661696c656420746f2077697468647261770000000000000000000000000000600082015250565b60006109456012836108fe565b91506109508261090f565b602082019050919050565b6000602082019050818103600083015261097481610938565b9050919050565b7f4e487b7100000000000000000000000000000000000000000000000000000000600052601160045260246000fd5b60006109b5826107f5565b91506109c0836107f5565b9250828210156109d3576109d261097b565b5b828203905092915050565b7f6661696c656420746f2073656e6420726566756e640000000000000000000000600082015250565b6000610a146015836108fe565b9150610a1f826109de565b602082019050919050565b60006020820190508181036000830152610a4381610a07565b9050919050565b6000610a55826107f5565b9150610a60836107f5565b9250827fffffffffffffffffffffffffffffffffffffffffffffffffffffffffffffffff03821115610a9557610a9461097b565b5b82820190509291505056fea2646970667358221220700424b06382946f4725f55ff4e7d060ca9efc2698abe110de617aa83e57612764736f6c634300080b0033",
  "linkReferences": {},
  "deployedLinkReferences": {}
}