{
  "_format": "hh-sol-artifact-1",
  "contractName": "Project",
  "sourceName": "contracts/Project.sol",
  "abi": [
    {
      "inputs": [
        {
          "internalType": "uint256",
          "name": "_fundingGoal",
          "type": "uint256"
        },
        {
          "internalType": "address",
          "name": "_sender",
          "type": "address"
        }
      ],
      "stateMutability": "nonpayable",
      "type": "constructor"
    },
    {
      "stateMutability": "payable",
      "type": "fallback"
    },
    {
      "inputs": [],
      "name": "cancel",
      "outputs": [],
      "stateMutability": "nonpayable",
      "type": "function"
    },
    {
      "inputs": [],
      "name": "cancelled",
      "outputs": [
        {
          "internalType": "bool",
          "name": "",
          "type": "bool"
        }
      ],
      "stateMutability": "view",
      "type": "function"
    },
    {
      "inputs": [],
      "name": "contribute",
      "outputs": [],
      "stateMutability": "payable",
      "type": "function"
    },
    {
      "inputs": [
        {
          "internalType": "address",
          "name": "",
          "type": "address"
        }
      ],
      "name": "contributors",
      "outputs": [
        {
          "internalType": "uint256",
          "name": "",
          "type": "uint256"
        }
      ],
      "stateMutability": "view",
      "type": "function"
    },
    {
      "inputs": [],
      "name": "creator",
      "outputs": [
        {
          "internalType": "address",
          "name": "",
          "type": "address"
        }
      ],
      "stateMutability": "view",
      "type": "function"
    },
    {
      "inputs": [],
      "name": "deadline",
      "outputs": [
        {
          "internalType": "uint256",
          "name": "",
          "type": "uint256"
        }
      ],
      "stateMutability": "view",
      "type": "function"
    },
    {
      "inputs": [],
      "name": "fundingGoal",
      "outputs": [
        {
          "internalType": "uint256",
          "name": "",
          "type": "uint256"
        }
      ],
      "stateMutability": "view",
      "type": "function"
    },
    {
      "inputs": [],
      "name": "minContribution",
      "outputs": [
        {
          "internalType": "uint256",
          "name": "",
          "type": "uint256"
        }
      ],
      "stateMutability": "view",
      "type": "function"
    },
    {
      "inputs": [],
      "name": "refund",
      "outputs": [],
      "stateMutability": "nonpayable",
      "type": "function"
    },
    {
      "inputs": [],
      "name": "totalContributions",
      "outputs": [
        {
          "internalType": "uint256",
          "name": "",
          "type": "uint256"
        }
      ],
      "stateMutability": "view",
      "type": "function"
    },
    {
      "inputs": [
        {
          "internalType": "uint256",
          "name": "_amount",
          "type": "uint256"
        }
      ],
      "name": "withdraw",
      "outputs": [],
      "stateMutability": "nonpayable",
      "type": "function"
    },
    {
      "stateMutability": "payable",
      "type": "receive"
    }
  ],
  "bytecode": "0x6080604052662386f26fc1000060035560006004556000600660006101000a81548160ff0219169083151502179055503480156200003c57600080fd5b5060405162000f8c38038062000f8c83398181016040528101906200006291906200016e565b80600160006101000a81548173ffffffffffffffffffffffffffffffffffffffff021916908373ffffffffffffffffffffffffffffffffffffffff1602179055508160028190555062278d0042620000bb9190620001e4565b600581905550505062000241565b600080fd5b6000819050919050565b620000e381620000ce565b8114620000ef57600080fd5b50565b6000815190506200010381620000d8565b92915050565b600073ffffffffffffffffffffffffffffffffffffffff82169050919050565b6000620001368262000109565b9050919050565b620001488162000129565b81146200015457600080fd5b50565b60008151905062000168816200013d565b92915050565b60008060408385031215620001885762000187620000c9565b5b60006200019885828601620000f2565b9250506020620001ab8582860162000157565b9150509250929050565b7f4e487b7100000000000000000000000000000000000000000000000000000000600052601160045260246000fd5b6000620001f182620000ce565b9150620001fe83620000ce565b9250827fffffffffffffffffffffffffffffffffffffffffffffffffffffffffffffffff03821115620002365762000235620001b5565b5b828201905092915050565b610d3b80620002516000396000f3fe6080604052600436106100a05760003560e01c8063590e1ae311610064578063590e1ae3146101905780637a3a0e84146101a75780639a82a09a146101d2578063aaffadf3146101fd578063d7bb99ba14610228578063ea8a1af014610232576100a7565b806302d05d3f146100a95780631f6d4942146100d457806329dcb0cf146101115780632e1a7d4d1461013c57806337c0892314610165576100a7565b366100a757005b005b3480156100b557600080fd5b506100be610249565b6040516100cb9190610877565b60405180910390f35b3480156100e057600080fd5b506100fb60048036038101906100f691906108c3565b61026f565b6040516101089190610909565b60405180910390f35b34801561011d57600080fd5b50610126610287565b6040516101339190610909565b60405180910390f35b34801561014857600080fd5b50610163600480360381019061015e9190610950565b61028d565b005b34801561017157600080fd5b5061017a6103eb565b6040516101879190610909565b60405180910390f35b34801561019c57600080fd5b506101a56103f1565b005b3480156101b357600080fd5b506101bc6105b9565b6040516101c99190610909565b60405180910390f35b3480156101de57600080fd5b506101e76105bf565b6040516101f49190610998565b60405180910390f35b34801561020957600080fd5b506102126105d2565b60405161021f9190610909565b60405180910390f35b6102306105d8565b005b34801561023e57600080fd5b5061024761071d565b005b600160009054906101000a900473ffffffffffffffffffffffffffffffffffffffff1681565b60006020528060005260406000206000915090505481565b60055481565b600160009054906101000a900473ffffffffffffffffffffffffffffffffffffffff1673ffffffffffffffffffffffffffffffffffffffff163373ffffffffffffffffffffffffffffffffffffffff161461031d576040517f08c379a000000000000000000000000000000000000000000000000000000000815260040161031490610a10565b60405180910390fd5b600254600454101561032e57600080fd5b4781111561033b57600080fd5b60003373ffffffffffffffffffffffffffffffffffffffff168260405161036190610a61565b60006040518083038185875af1925050503d806000811461039e576040519150601f19603f3d011682016040523d82523d6000602084013e6103a3565b606091505b50509050806103e7576040517f08c379a00000000000000000000000000000000000000000000000000000000081526004016103de90610ac2565b60405180910390fd5b5050565b60045481565b60025460045410801561040657506005544210155b8061041d5750600660009054906101000a900460ff165b61042657600080fd5b60008060003373ffffffffffffffffffffffffffffffffffffffff1673ffffffffffffffffffffffffffffffffffffffff168152602001908152602001600020541161047157600080fd5b60008060003373ffffffffffffffffffffffffffffffffffffffff1673ffffffffffffffffffffffffffffffffffffffff168152602001908152602001600020549050806000803373ffffffffffffffffffffffffffffffffffffffff1673ffffffffffffffffffffffffffffffffffffffff16815260200190815260200160002060008282546105029190610b11565b9250508190555060003373ffffffffffffffffffffffffffffffffffffffff168260405161052f90610a61565b60006040518083038185875af1925050503d806000811461056c576040519150601f19603f3d011682016040523d82523d6000602084013e610571565b606091505b50509050806105b5576040517f08c379a00000000000000000000000000000000000000000000000000000000081526004016105ac90610b91565b60405180910390fd5b5050565b60025481565b600660009054906101000a900460ff1681565b60035481565b600660009054906101000a900460ff161580156105f6575060055442105b80156106055750600254600454105b610644576040517f08c379a000000000000000000000000000000000000000000000000000000000815260040161063b90610bfd565b60405180910390fd5b600354341015610689576040517f08c379a000000000000000000000000000000000000000000000000000000000815260040161068090610c8f565b60405180910390fd5b6000346000803373ffffffffffffffffffffffffffffffffffffffff1673ffffffffffffffffffffffffffffffffffffffff168152602001908152602001600020546106d59190610caf565b9050806000803373ffffffffffffffffffffffffffffffffffffffff1673ffffffffffffffffffffffffffffffffffffffff1681526020019081526020016000208190555050565b600160009054906101000a900473ffffffffffffffffffffffffffffffffffffffff1673ffffffffffffffffffffffffffffffffffffffff163373ffffffffffffffffffffffffffffffffffffffff16146107ad576040517f08c379a00000000000000000000000000000000000000000000000000000000081526004016107a490610a10565b60405180910390fd5b600660009054906101000a900460ff161580156107cb575060055442105b80156107da5750600254600454105b610819576040517f08c379a000000000000000000000000000000000000000000000000000000000815260040161081090610bfd565b60405180910390fd5b6001600660006101000a81548160ff021916908315150217905550565b600073ffffffffffffffffffffffffffffffffffffffff82169050919050565b600061086182610836565b9050919050565b61087181610856565b82525050565b600060208201905061088c6000830184610868565b92915050565b600080fd5b6108a081610856565b81146108ab57600080fd5b50565b6000813590506108bd81610897565b92915050565b6000602082840312156108d9576108d8610892565b5b60006108e7848285016108ae565b91505092915050565b6000819050919050565b610903816108f0565b82525050565b600060208201905061091e60008301846108fa565b92915050565b61092d816108f0565b811461093857600080fd5b50565b60008135905061094a81610924565b92915050565b60006020828403121561096657610965610892565b5b60006109748482850161093b565b91505092915050565b60008115159050919050565b6109928161097d565b82525050565b60006020820190506109ad6000830184610989565b92915050565b600082825260208201905092915050565b7f6d7573742062652070726f6a6563742063726561746f72000000000000000000600082015250565b60006109fa6017836109b3565b9150610a05826109c4565b602082019050919050565b60006020820190508181036000830152610a29816109ed565b9050919050565b600081905092915050565b50565b6000610a4b600083610a30565b9150610a5682610a3b565b600082019050919050565b6000610a6c82610a3e565b9150819050919050565b7f6661696c656420746f2077697468647261770000000000000000000000000000600082015250565b6000610aac6012836109b3565b9150610ab782610a76565b602082019050919050565b60006020820190508181036000830152610adb81610a9f565b9050919050565b7f4e487b7100000000000000000000000000000000000000000000000000000000600052601160045260246000fd5b6000610b1c826108f0565b9150610b27836108f0565b925082821015610b3a57610b39610ae2565b5b828203905092915050565b7f6661696c656420746f2073656e6420726566756e640000000000000000000000600082015250565b6000610b7b6015836109b3565b9150610b8682610b45565b602082019050919050565b60006020820190508181036000830152610baa81610b6e565b9050919050565b7f70726f6a656374206973206e6f74206c69766500000000000000000000000000600082015250565b6000610be76013836109b3565b9150610bf282610bb1565b602082019050919050565b60006020820190508181036000830152610c1681610bda565b9050919050565b7f636f6e747269627574696f6e206d757374206265206174206c6561737420302e60008201527f3031204554480000000000000000000000000000000000000000000000000000602082015250565b6000610c796026836109b3565b9150610c8482610c1d565b604082019050919050565b60006020820190508181036000830152610ca881610c6c565b9050919050565b6000610cba826108f0565b9150610cc5836108f0565b9250827fffffffffffffffffffffffffffffffffffffffffffffffffffffffffffffffff03821115610cfa57610cf9610ae2565b5b82820190509291505056fea264697066735822122008a28cb17dcdfe451567017277cf0c60b0b63213c431e383df9686f01506e6af64736f6c634300080b0033",
  "linkReferences": {},
  "deployedLinkReferences": {}
}